{
  "_format": "hh-sol-artifact-1",
  "contractName": "FundMe",
  "sourceName": "contracts/FundMe.sol",
  "abi": [
    {
      "inputs": [
        {
          "internalType": "address",
          "name": "priceFeedAddress",
          "type": "address"
        }
      ],
      "stateMutability": "nonpayable",
      "type": "constructor"
    },
    {
      "inputs": [],
      "name": "FundMe__NotOwner",
      "type": "error"
    },
    {
      "inputs": [],
      "name": "MINIMUM_USD",
      "outputs": [
        {
          "internalType": "uint256",
          "name": "",
          "type": "uint256"
        }
      ],
      "stateMutability": "view",
      "type": "function"
    },
    {
      "inputs": [
        {
          "internalType": "address",
          "name": "",
          "type": "address"
        }
      ],
      "name": "addressToAmountFunded",
      "outputs": [
        {
          "internalType": "uint256",
          "name": "",
          "type": "uint256"
        }
      ],
      "stateMutability": "view",
      "type": "function"
    },
    {
      "inputs": [],
      "name": "fund",
      "outputs": [],
      "stateMutability": "payable",
      "type": "function"
    },
    {
      "inputs": [
        {
          "internalType": "uint256",
          "name": "",
          "type": "uint256"
        }
      ],
      "name": "funders",
      "outputs": [
        {
          "internalType": "address",
          "name": "",
          "type": "address"
        }
      ],
      "stateMutability": "view",
      "type": "function"
    },
    {
      "inputs": [
        {
          "internalType": "address",
          "name": "fundingAddress",
          "type": "address"
        }
      ],
      "name": "getAddressToAmountFunded",
      "outputs": [
        {
          "internalType": "uint256",
          "name": "",
          "type": "uint256"
        }
      ],
      "stateMutability": "view",
      "type": "function"
    },
    {
      "inputs": [],
      "name": "i_owner",
      "outputs": [
        {
          "internalType": "address",
          "name": "",
          "type": "address"
        }
      ],
      "stateMutability": "view",
      "type": "function"
    },
    {
      "inputs": [],
      "name": "priceFeed",
      "outputs": [
        {
          "internalType": "contract AggregatorV3Interface",
          "name": "",
          "type": "address"
        }
      ],
      "stateMutability": "view",
      "type": "function"
    },
    {
      "inputs": [],
      "name": "withdraw",
      "outputs": [],
      "stateMutability": "nonpayable",
      "type": "function"
    }
  ],
  "bytecode": "0x60a060405234801561001057600080fd5b506040516200105f3803806200105f83398181016040528101906100349190610115565b3373ffffffffffffffffffffffffffffffffffffffff1660808173ffffffffffffffffffffffffffffffffffffffff1660601b8152505080600260006101000a81548173ffffffffffffffffffffffffffffffffffffffff021916908373ffffffffffffffffffffffffffffffffffffffff16021790555050610142565b600080fd5b600073ffffffffffffffffffffffffffffffffffffffff82169050919050565b60006100e2826100b7565b9050919050565b6100f2816100d7565b81146100fd57600080fd5b50565b60008151905061010f816100e9565b92915050565b60006020828403121561012b5761012a6100b2565b5b600061013984828501610100565b91505092915050565b60805160601c610ef7620001686000396000818161022301526105e80152610ef76000f3fe60806040526004361061007b5760003560e01c8063741bef1a1161004e578063741bef1a1461013c578063b60d428814610167578063dba6335f14610171578063dc0d3dff1461019c5761007b565b80630343fb25146100805780633ccfd60b146100bd5780633e47d6f3146100d45780636b69a59214610111575b600080fd5b34801561008c57600080fd5b506100a760048036038101906100a2919061082f565b6101d9565b6040516100b49190610875565b60405180910390f35b3480156100c957600080fd5b506100d2610221565b005b3480156100e057600080fd5b506100fb60048036038101906100f6919061082f565b610461565b6040516101089190610875565b60405180910390f35b34801561011d57600080fd5b50610126610479565b6040516101339190610875565b60405180910390f35b34801561014857600080fd5b50610151610486565b60405161015e91906108ef565b60405180910390f35b61016f6104ac565b005b34801561017d57600080fd5b506101866105e6565b6040516101939190610919565b60405180910390f35b3480156101a857600080fd5b506101c360048036038101906101be9190610960565b61060a565b6040516101d09190610919565b60405180910390f35b60008060008373ffffffffffffffffffffffffffffffffffffffff1673ffffffffffffffffffffffffffffffffffffffff168152602001908152602001600020549050919050565b7f000000000000000000000000000000000000000000000000000000000000000073ffffffffffffffffffffffffffffffffffffffff163373ffffffffffffffffffffffffffffffffffffffff16146102a6576040517f579610db00000000000000000000000000000000000000000000000000000000815260040160405180910390fd5b60005b600180549050811015610351576000600182815481106102cc576102cb61098d565b5b9060005260206000200160009054906101000a900473ffffffffffffffffffffffffffffffffffffffff16905060008060008373ffffffffffffffffffffffffffffffffffffffff1673ffffffffffffffffffffffffffffffffffffffff16815260200190815260200160002081905550508080610349906109eb565b9150506102a9565b50600067ffffffffffffffff81111561036d5761036c610a34565b5b60405190808252806020026020018201604052801561039b5781602001602082028036833780820191505090505b50600190805190602001906103b1929190610725565b5060003373ffffffffffffffffffffffffffffffffffffffff16476040516103d890610a94565b60006040518083038185875af1925050503d8060008114610415576040519150601f19603f3d011682016040523d82523d6000602084013e61041a565b606091505b505090508061045e576040517f08c379a000000000000000000000000000000000000000000000000000000000815260040161045590610b06565b60405180910390fd5b50565b60006020528060005260406000206000915090505481565b6802b5e3af16b188000081565b600260009054906101000a900473ffffffffffffffffffffffffffffffffffffffff1681565b6802b5e3af16b18800006104eb600260009054906101000a900473ffffffffffffffffffffffffffffffffffffffff163461064990919063ffffffff16565b101561052c576040517f08c379a000000000000000000000000000000000000000000000000000000000815260040161052390610b72565b60405180910390fd5b346000803373ffffffffffffffffffffffffffffffffffffffff1673ffffffffffffffffffffffffffffffffffffffff168152602001908152602001600020600082825461057a9190610b92565b925050819055506001339080600181540180825580915050600190039060005260206000200160009091909190916101000a81548173ffffffffffffffffffffffffffffffffffffffff021916908373ffffffffffffffffffffffffffffffffffffffff160217905550565b7f000000000000000000000000000000000000000000000000000000000000000081565b6001818154811061061a57600080fd5b906000526020600020016000915054906101000a900473ffffffffffffffffffffffffffffffffffffffff1681565b60008061065583610685565b90506000670de0b6b3a7640000858361066e9190610be8565b6106789190610c71565b9050809250505092915050565b6000808273ffffffffffffffffffffffffffffffffffffffff1663feaf968c6040518163ffffffff1660e01b815260040160a06040518083038186803b1580156106ce57600080fd5b505afa1580156106e2573d6000803e3d6000fd5b505050506040513d601f19601f820116820180604052508101906107069190610d2f565b5050509150506402540be4008161071d9190610daa565b915050919050565b82805482825590600052602060002090810192821561079e579160200282015b8281111561079d5782518260006101000a81548173ffffffffffffffffffffffffffffffffffffffff021916908373ffffffffffffffffffffffffffffffffffffffff16021790555091602001919060010190610745565b5b5090506107ab91906107af565b5090565b5b808211156107c85760008160009055506001016107b0565b5090565b600080fd5b600073ffffffffffffffffffffffffffffffffffffffff82169050919050565b60006107fc826107d1565b9050919050565b61080c816107f1565b811461081757600080fd5b50565b60008135905061082981610803565b92915050565b600060208284031215610845576108446107cc565b5b60006108538482850161081a565b91505092915050565b6000819050919050565b61086f8161085c565b82525050565b600060208201905061088a6000830184610866565b92915050565b6000819050919050565b60006108b56108b06108ab846107d1565b610890565b6107d1565b9050919050565b60006108c78261089a565b9050919050565b60006108d9826108bc565b9050919050565b6108e9816108ce565b82525050565b600060208201905061090460008301846108e0565b92915050565b610913816107f1565b82525050565b600060208201905061092e600083018461090a565b92915050565b61093d8161085c565b811461094857600080fd5b50565b60008135905061095a81610934565b92915050565b600060208284031215610976576109756107cc565b5b60006109848482850161094b565b91505092915050565b7f4e487b7100000000000000000000000000000000000000000000000000000000600052603260045260246000fd5b7f4e487b7100000000000000000000000000000000000000000000000000000000600052601160045260246000fd5b60006109f68261085c565b91507fffffffffffffffffffffffffffffffffffffffffffffffffffffffffffffffff821415610a2957610a286109bc565b5b600182019050919050565b7f4e487b7100000000000000000000000000000000000000000000000000000000600052604160045260246000fd5b600081905092915050565b50565b6000610a7e600083610a63565b9150610a8982610a6e565b600082019050919050565b6000610a9f82610a71565b9150819050919050565b600082825260208201905092915050565b7f43616c6c206661696c6564000000000000000000000000000000000000000000600082015250565b6000610af0600b83610aa9565b9150610afb82610aba565b602082019050919050565b60006020820190508181036000830152610b1f81610ae3565b9050919050565b7f596f75206e65656420746f207370656e64206d6f726520455448210000000000600082015250565b6000610b5c601b83610aa9565b9150610b6782610b26565b602082019050919050565b60006020820190508181036000830152610b8b81610b4f565b9050919050565b6000610b9d8261085c565b9150610ba88361085c565b9250827fffffffffffffffffffffffffffffffffffffffffffffffffffffffffffffffff03821115610bdd57610bdc6109bc565b5b828201905092915050565b6000610bf38261085c565b9150610bfe8361085c565b9250817fffffffffffffffffffffffffffffffffffffffffffffffffffffffffffffffff0483118215151615610c3757610c366109bc565b5b828202905092915050565b7f4e487b7100000000000000000000000000000000000000000000000000000000600052601260045260246000fd5b6000610c7c8261085c565b9150610c878361085c565b925082610c9757610c96610c42565b5b828204905092915050565b600069ffffffffffffffffffff82169050919050565b610cc181610ca2565b8114610ccc57600080fd5b50565b600081519050610cde81610cb8565b92915050565b6000819050919050565b610cf781610ce4565b8114610d0257600080fd5b50565b600081519050610d1481610cee565b92915050565b600081519050610d2981610934565b92915050565b600080600080600060a08688031215610d4b57610d4a6107cc565b5b6000610d5988828901610ccf565b9550506020610d6a88828901610d05565b9450506040610d7b88828901610d1a565b9350506060610d8c88828901610d1a565b9250506080610d9d88828901610ccf565b9150509295509295909350565b6000610db582610ce4565b9150610dc083610ce4565b9250827f7fffffffffffffffffffffffffffffffffffffffffffffffffffffffffffffff0482116000841360008413161615610dff57610dfe6109bc565b5b817f80000000000000000000000000000000000000000000000000000000000000000583126000841260008413161615610e3c57610e3b6109bc565b5b827f80000000000000000000000000000000000000000000000000000000000000000582126000841360008412161615610e7957610e786109bc565b5b827f7fffffffffffffffffffffffffffffffffffffffffffffffffffffffffffffff0582126000841260008412161615610eb657610eb56109bc565b5b82820290509291505056fea2646970667358221220d609643659da5f71561ae80cb19f89e5c4955f2015eedaca3b4c59244172370264736f6c63430008080033",
  "linkReferences": {},
  "deployedLinkReferences": {}
}